:1000000019C033C032C031C030C02FC02EC02DC087
:100010002CC02BC02AC029C028C027C026C025C09C
:1000200028C123C0DDC021C020C01FC01EC01DC00C
:10003000B0C11BC011241FBECFEFD4E0DEBFCDBFC7
:1000400011E0A0E0B1E0E2EDF8E002C005900D9211
:10005000A234B107D9F711E0A2E4B1E001C01D92CA
:10006000A636B107E1F719D232C4CACF680F791F9B
:1000700020E030E08617970799F0FC014191CF010D
:10008000342748E050E037FF03C02058F3E83F270B
:10009000220F331F4150510941155105A1F7EACFF5
:1000A000832F08954F925F926F927F92AF92BF928B
:1000B000CF92DF92EF92FF920F931F93CF93DF9334
:1000C00000D000D0CDB7DEB72B013C0129833A83A5
:1000D0004B835C836D897E898F89988D421A530A80
:1000E000640A750A6A197B098C099D096F5F7F4F45
:1000F0008F4F9F4FA30192016CD32FEFE21AF20AA8
:100100000F4F1F4F29813A814B815C81E21AF30A1C
:10011000040B150BA801970192D32A0D3B1D4C1D12
:100120005D1DCA01B9010F900F900F900F90DF91E4
:10013000CF911F910F91FF90EF90DF90CF90BF90E4
:10014000AF907F906F905F904F9008950F931F93A3
:10015000FC01E61BF70B021B130B0F5F1F4FE09F09
:10016000C001E19F900DF09F900D11244F5F5F4FF4
:10017000461B570BBA013CD3CB01820F931F1F9133
:100180000F9108950F931F93A62FB0E0E82FF0E092
:10019000EA1BFB0B10E0021B11090F5F1F4FE09FD2
:1001A000C001E19F900DF09F900D1124642F70E02D
:1001B0006A1B7B0B6F5F7F4F2FD3822F860F1F91A0
:1001C0000F910895FC01808190E002C0959587957C
:1001D0006A95E2F781709927F1E08F278170089581
:1001E0001F920F920FB60F9211241F932F933F93DC
:1001F0004F935F936F937F938F939F93AF93BF932F
:10020000CF93DF93EF93FF93D0914401D0934301B9
:10021000C0914501C09344011091C600109345015F
:1002200062E070E083E491E021DF811307C0D093A6
:100230004B01C0934C0181E080934A01FF91EF9103
:10024000DF91CF91BF91AF919F918F917F916F91EE
:100250005F914F913F912F911F910F900FBE0F9083
:100260001F9018959091C00095FFFCCF8093C60019
:1002700008951F920F920FB60F9211240F900FBE88
:100280000F901F901895813021F45F9A809342015E
:1002900005C0811103C05F98109242018091420114
:1002A0000895FB01DA01843060F4282F30E0225AEF
:1002B0003E4F3183208394E0981B9C931092000161
:1002C000089596EF980F933058F4282F30E0215B73
:1002D0003E4F318320839DE0981B9C938AE03AC077
:1002E000843019F42DE531E004C0873039F42CE571
:1002F00031E03183208391E09C932CC09CEE980FD9
:100300009C3058F4282F30E0275C3E4F3183208307
:1003100090E2981B9C9384E11DC098ED980F933058
:1003200058F4282F30E02E5D3E4F318320839BE22E
:10033000981B9C9388E20EC09EEC980F943068F452
:10034000282F30E02C5E3E4F3183208396E3981BAC
:100350009C9382E38093000108951C921182108285
:100360000895089580910001883211F410924A0195
:1003700008958093BA00ECEBF0E080818F7D80835C
:100380008081856480831092640110926301789467
:1003900008951F920F920FB60F9211242F933F933F
:1003A0004F935F936F937F938F939F93AF93BF937D
:1003B000EF93FF938091B900887F803A09F458C089
:1003C00080F48038C9F0883809F452C0803609F0CA
:1003D00050C085EC8093BC001092640110926301C0
:1003E0004BC0883B09F118F4883AF1F042C0803CD8
:1003F000E9F1883CD9F13DC08091BB0020916301B7
:10040000309164012115310541F445E651E063E680
:1004100071E047DF109262012CC090916201F901F6
:10042000E90FF11D80830EC08091630190916401FA
:10043000009771F020916201FC01E20FF11D8081B3
:100440008093BB00809162018F5F8093620102C044
:100450001092BB00209162018091650130E090E034
:100460000197281739072CF085E804C07BDF01C00D
:1004700078DF85EC8093BC00FF91EF91BF91AF9145
:100480009F918F917F916F915F914F913F912F91AC
:100490000F900FBE0F901F901895ADE0B0E0E2E511
:1004A000F2E0EFC1F89484B18E6084B98AB1886EAD
:1004B0008AB984B18F7384B985B1806C85B9549839
:1004C0005C9A83EF84BD11E015BD8093B00010935A
:1004D000B10082EF8093800089E18093810082EDFA
:1004E00090E09093870080938600809186009091A1
:1004F0008700209186003091870036952795821BD2
:10050000930B90938900809388002FEF2093B30082
:10051000809186009091870090938B0080938A0051
:1005200028BD2093B40027BD86E023DF1093C500CB
:1005300080EA8093C4008091C10088698093C100E3
:1005400086E08093C200789480E38093460189E33B
:10055000809347018FEF8B87812C912C1C861D8601
:10056000212C312C412C512C32011F8218861986E6
:100570001A861B821C821D821E8280914D01882357
:10058000E1F18091500180935D012091510130E0B3
:10059000A8ECB0E012D16B837C838D839E83809125
:1005A000520180935C012091530130E006D16F83AA
:1005B000788789879A878091540180935E01809122
:1005C000550180935F018091560180936001809175
:1005D0005701809361012091580130E0EED02B014A
:1005E0003C0110924D016C875D8613011B869CEDCA
:1005F000891695E0990630F00CC0ACED8A16A5E09E
:100600009A0620F4BFEF8B1A9B0A1AC08B858330A1
:10061000A8F480914E01898380914F018A83809153
:100620004E0120DE80914F011DDE62E070E0CE01C0
:1006300001961CDD17DE9B859F5F9B87812C912C8B
:100640008B819C81AD81BE8182309105A105B10570
:1006500038F00197A109B1098B839C83AD83BE83D8
:100660008B819C81AD81BE810197A105B10531F4DB
:1006700010925D011B821C821D821E828F819885D3
:10068000A985BA8582309105A105B10538F0019799
:10069000A109B1098F839887A987BA878F81988527
:1006A000A985BA850197A105B10531F410925C01C5
:1006B0001F82188619861A8692E049165104610431
:1006C000710448F1A0905401B12CC12CD12CA2E0AE
:1006D000D694C794B794A794AA95D1F71F921F9266
:1006E0001F921F92E12CF12C8701E3942C853D850C
:1006F000A101C301B201D6DC0F900F900F900F90B3
:10070000FB01EF5FFE4F808180935E01A1E04A1AFA
:10071000510861087108B1E04B165104610471047D
:1007200059F410925E0110925F01109260011092D4
:100730006101412C512C320180915E0180958093A2
:10074000B3002091860030918700809186009091BF
:10075000870060915F0199270196689FA001699FBA
:10076000500D1124852F9927281B390B30938B00AE
:1007700020938A0080916001809588BD80916101FD
:1007800080958093B40080915D017DDD80915C0156
:10079000809587BD67E083E290E014DD8093590186
:1007A00066E083E290E00EDD80935A0164E089E226
:1007B00090E008DD80935B01E0CEA29FB001B39F83
:1007C000C001A39F01D0B29F700D811D1124911D06
:1007D0000895DB018F939F9370D0BF91AF91A29F3B
:1007E000800D911DA39F900DB29F900D112408952F
:1007F000AA1BBB1B51E107C0AA1FBB1FA617B70747
:1008000010F0A61BB70B881F991F5A95A9F7809562
:100810009095BC01CD01089597FB072E16F4009426
:1008200006D077FD08D0E4DF07FC05D03EF49095B4
:1008300081959F4F0895709561957F4F0895A1E22E
:100840001A2EAA1BBB1BFD010DC0AA1FBB1FEE1F4A
:10085000FF1FA217B307E407F50720F0A21BB30B95
:10086000E40BF50B661F771F881F991F1A9469F711
:1008700060957095809590959B01AC01BD01CF016D
:1008800008952F923F924F925F926F927F928F9234
:100890009F92AF92BF92CF92DF92EF92FF920F930F
:1008A0001F93CF93DF93CDB7DEB7CA1BDB0B0FB619
:1008B000F894DEBF0FBECDBF09947FDFA59F900DDA
:1008C000B49F900DA49F800D911D11240895F8945C
:0208D000FFCF58
:1008D200FF010102020202030303030404050506E9
:1008E2000607070808090A0B0C0D0E0F1012131544
:1008F20016181A1C1E212326292D3034383D414753
:100902004C525960676F78818C97A2AFBDCBDBEDFB
:02091200FF00E4
:00000001FF
