:1000000019C033C032C031C030C02FC02EC02DC087
:100010002CC02BC02AC029C028C027C026C025C09C
:10002000ECC023C0A1C021C020C01FC01EC01DC085
:1000300074C11BC011241FBECFEFD4E0DEBFCDBF03
:1000400011E0A0E0B1E0EEEFF7E002C005900D9204
:10005000A236B107D9F721E0A2E6B1E001C01D92B6
:10006000A638B207E1F7DDD1C8C3CACF680F791F40
:1000700020E030E08617970799F0FC014191CF010D
:10008000342748E050E037FF03C02058F3E83F270B
:10009000220F331F4150510941155105A1F7EACFF5
:1000A000832F08954F925F926F927F92AF92BF928B
:1000B000CF92DF92EF92FF920F931F93CF93DF9334
:1000C00000D000D0CDB7DEB72B013C0129833A83A5
:1000D0004B835C836D897E898F89988D421A530A80
:1000E000640A750A6A197B098C099D096F5F7F4F45
:1000F0008F4F9F4FA301920117D329813A814B81E2
:100100005C81E21AF30A040B150B3FEFE31AF30AC2
:100110000F4F1F4FA801970116D32A0D3B1D4C1DF1
:100120005D1DCA01B9010F900F900F900F90DF91E4
:10013000CF911F910F91FF90EF90DF90CF90BF90E4
:10014000AF907F906F905F904F900895FC018081F9
:1001500090E002C0959587956A95E2F7817099279E
:10016000F1E08F27817008951F920F920FB60F92C2
:1001700011241F932F933F934F935F936F937F931C
:100180008F939F93AF93BF93CF93DF93EF93FF939F
:10019000D0916401D0936301C0916501C093640163
:1001A0001091C6001093650162E070E083E691E073
:1001B0005DDF811307C0D0936B01C0936C0181E0B8
:1001C00080936A01FF91EF91DF91CF91BF91AF9141
:1001D0009F918F917F916F915F914F913F912F915F
:1001E0001F910F900FBE0F901F9018959091C00017
:1001F00095FFFCCF8093C60008951F920F920FB613
:100200000F9211240F900FBE0F901F901895813000
:1002100021F45F9A8093620105C0811103C05F9849
:1002200010926201809162010895FB01DA0184302D
:1002300060F4282F30E022583E4F3183208394E031
:10024000981B9C9310920001089596EF980F93309D
:1002500058F4282F30E021593E4F318320839DE010
:10026000981B9C938AE03AC0843019F42DE731E062
:1002700004C0873039F42CE731E03183208391E0EA
:100280009C932CC09CEE980F9C3058F4282F30E0A3
:10029000275A3E4F3183208390E2981B9C9384E140
:1002A0001DC098ED980F933058F4282F30E02E5B46
:1002B0003E4F318320839BE2981B9C9388E20EC0C3
:1002C0009EEC980F943068F4282F30E02C5C3E4F61
:1002D0003183208396E3981B9C9382E380930001F3
:1002E00008951C9211821082089508958091000152
:1002F000883211F410926A0108958093BA00ECEBF1
:10030000F0E080818F7D808380818564808310927E
:10031000840110928301789408951F920F920FB672
:100320000F9211242F933F934F935F936F937F937B
:100330008F939F93AF93BF93EF93FF938091B900F7
:10034000887F803A09F458C080F48038C9F0883832
:1003500009F452C0803609F050C085EC8093BC008F
:1003600010928401109283014BC0883B09F118F46C
:10037000883AF1F042C0803CE9F1883CD9F13DC0B7
:100380008091BB00209183013091840121153105BA
:1003900041F445E851E063E871E047DF10928201E3
:1003A0002CC090918201F901E90FF11D80830EC0EC
:1003B0008091830190918401009771F020918201D6
:1003C000FC01E20FF11D80818093BB0080918201CE
:1003D0008F5F8093820102C01092BB002091820146
:1003E0008091850130E090E00197281739072CF0C3
:1003F00085E804C07BDF01C078DF85EC8093BC001A
:10040000FF91EF91BF91AF919F918F917F916F91EC
:100410005F914F913F912F910F900FBE0F901F90C2
:100420001895CF93DF93CDB7DEB72A970FB6F89420
:10043000DEBF0FBECDBFF89484B18E6084B98AB19F
:10044000886E8AB984B18F7384B985B1806C85B99F
:1004500054985C9A83EF84BD11E015BD8093B00081
:100460001093B10082EF8093800089E18093810036
:1004700082ED90E0909387008093860080918600C3
:1004800090918700209186003091870036952795BE
:10049000821B930B90938900809388002FEF209309
:1004A000B300809186009091870090938B00809399
:1004B0008A0028BD2093B40027BD86E01EDF10937C
:1004C000C50080EA8093C4008091C1008869809350
:1004D000C10086E08093C20078941FEF212C312C5C
:1004E0001B821C821D821E82C12CD12C7601412CC4
:1004F000512C32011F82188619861A8680916D014F
:100500008823D9F18091700180937D012091710140
:1005100030E0A8ECB0E033D16F83788789879A8781
:100520008091720180937C012091730130E027D18A
:100530002B013C018091740180937E0180917501B3
:1005400080937F0180917601809380018091770173
:10055000809381012091780130E011D16B017C0101
:1005600010926D016B837C838D839E8310E08CEDF4
:10057000281685E0380630F00BC09CED291695E072
:10058000390620F4AFEF2A1A3A0A17C0133098F44C
:1005900080916E01898380916F018A8380916E01C1
:1005A00025DE80916F0122DE62E070E0CE010196CF
:1005B0005DDD1CDE1F5F212C312C8F819885A98584
:1005C000BA8582309105A105B10538F00197A109DE
:1005D000B1098F839887A987BA878F819885A98564
:1005E000BA850197A105B10541F410927D011092E1
:1005F0007C011F82188619861A8692E049165104DA
:100600006104710428F0A1E04A1A510861087108D8
:10061000B1E04B1651046104710429F410927C017D
:10062000412C512C320182E0C816D104E104F104BE
:1006300028F1A70196018B809C80AD80BE8028198F
:1006400039094A095B09A2ECBFEFB1D022E030E0E2
:1006500040E050E0281939094A095B0974D0215C4F
:100660003F4F4F4F5F4FF901EF5FFE4F8081809307
:100670007E0181E0C81AD108E108F10891E0C916AD
:10068000D104E104F10459F410927E0110927F012B
:100690001092800110928101C12CD12C76018091A1
:1006A0007E0180958093B300E0918600F0918700F1
:1006B0002091860030918700A0917F0140E050E0BA
:1006C0002F5F3F4F4F4F5F4FB0E065D0BB2797FD87
:1006D000BA95A92F982F872FE81BF90BF0938B0061
:1006E000E0938A0080918001809588BD809181018E
:1006F00080958093B40080917D0189DD80917C019B
:1007000087BD67E083E290E021DD8093790166E0B8
:1007100083E290E01BDD80937A0164E089E290E05F
:1007200015DD80937B01EACEDB018F939F9333D05D
:10073000BF91AF91A29F800D911DA39F900DB29F7D
:10074000900D11240895052E97FB16F400940FD0F8
:1007500057FD05D030D007FC02D046F408C05095B4
:100760004095309521953F4F4F4F5F4F089590959D
:100770008095709561957F4F8F4F9F4F0895A29FF1
:10078000B001B39FC001A39F01D0B29F700D811D26
:100790001124911D0895F3DFA59F900DB49F900D36
:1007A000A49F800D911D11240895B7FFF4CFF3DFAE
:1007B000821B930B0895A1E21A2EAA1BBB1BFD01FD
:1007C0000DC0AA1FBB1FEE1FFF1FA217B307E40730
:1007D000F50720F0A21BB30BE40BF50B661F771F88
:1007E000881F991F1A9469F7609570958095909568
:0E07F0009B01AC01BD01CF010895F894FFCF2D
:1007FE00FF010102020202030303030404050506BE
:10080E000607070808090A0B0C0D0E0F1012131518
:10081E0016181A1C1E212326292D3034383D414727
:10082E004C525960676F78818C97A2AFBDCBDBEDD0
:10083E00FF0001020202030304050607080A0B0D5E
:10084E001013171B20262D36404C5B6C8098B5D7A5
:02085E00FF0099
:00000001FF
