:1000000019C033C032C031C030C02FC02EC02DC087
:100010002CC02BC02AC029C028C027C026C025C09C
:10002000ECC023C0A1C021C020C01FC01EC01DC085
:100030007EC11BC011241FBECFEFD4E0DEBFCDBFF9
:1000400011E0A0E0B1E0E4E3F7E002C005900D921A
:10005000A230B107D9F721E0A2E0B1E001C01D92C2
:10006000A332B207E1F7E7D163C3CACF680F791FA4
:1000700020E030E08617970799F0FC014191CF010D
:10008000342748E050E037FF03C02058F3E83F270B
:10009000220F331F4150510941155105A1F7EACFF5
:1000A000832F08954F925F926F927F92AF92BF928B
:1000B000CF92DF92EF92FF920F931F93CF93DF9334
:1000C00000D000D0CDB7DEB72B013C0129833A83A5
:1000D0004B835C836D897E898F89988D421A530A80
:1000E000640A750A6A197B098C099D096F5F7F4F45
:1000F0008F4F9F4FA30192019CD229813A814B815E
:100100005C81E21AF30A040B150B3FEFE31AF30AC2
:100110000F4F1F4FA80197019BD22A0D3B1D4C1D6D
:100120005D1DCA01B9010F900F900F900F90DF91E4
:10013000CF911F910F91FF90EF90DF90CF90BF90E4
:10014000AF907F906F905F904F900895FC018081F9
:1001500090E002C0959587956A95E2F7817099279E
:10016000F1E08F27817008951F920F920FB60F92C2
:1001700011241F932F933F934F935F936F937F931C
:100180008F939F93AF93BF93CF93DF93EF93FF939F
:10019000D0910401D0930301C0910501C0930401E3
:1001A0001091C6001093050162E070E083E091E0D9
:1001B0005DDF811307C0D0930B01C0930C0181E078
:1001C00080930A01FF91EF91DF91CF91BF91AF91A1
:1001D0009F918F917F916F915F914F913F912F915F
:1001E0001F910F900FBE0F901F9018959091C00017
:1001F00095FFFCCF8093C60008951F920F920FB613
:100200000F9211240F900FBE0F901F901895813000
:1002100021F45F9A8093020105C0811103C05F98A9
:1002200010920201809102010895FB01DA018430ED
:1002300060F4282F30E0255E3E4F3183208394E028
:10024000981B9C9310920001089596EF980F93309D
:1002500058F4282F30E0265F3E4F318320839DE005
:10026000981B9C938AE044C09CEF980F933058F4FD
:10027000282F30E02C5E3E4F3183208397E0981B7F
:100280009C9384E035C0873039F427E131E0318335
:10029000208391E09C932CC09CEE980F973058F4EB
:1002A000282F30E027503F4F318320839BE1981B5C
:1002B0009C9384E11DC092EE980F933058F4282F40
:1002C00030E024513F4F3183208391E2981B9C936F
:1002D0008EE10EC098ED980F943068F4282F30E02E
:1002E00022523F4F318320839CE2981B9C9388E2EB
:1002F0008093000108951C92118210820895089540
:10030000809100018E3111F410920A0108958093BA
:10031000BA00ECEBF0E080818F7D80838081856482
:1003200080831092210110922001789408951F92E9
:100330000F920FB60F9211242F933F934F935F9319
:100340006F937F938F939F93AF93BF93EF93FF939D
:100350008091B900887F803A09F458C080F48038D1
:10036000C9F0883809F452C0803609F050C085ECD5
:100370008093BC0010922101109220014BC0883B59
:1003800009F118F4883AF1F042C0803CE9F1883C68
:10039000D9F13DC08091BB00209120013091210115
:1003A0002115310541F442E251E060E271E03DDFA8
:1003B00010921F012CC090911F01F901E90FF11D4E
:1003C00080830EC08091200190912101009771F0EF
:1003D00020911F01FC01E20FF11D80818093BB0081
:1003E00080911F018F5F80931F0102C01092BB009C
:1003F00020911F018091220130E090E001972817A1
:1004000039072CF085E804C07BDF01C078DF85EC7C
:100410008093BC00FF91EF91BF91AF919F918F911D
:100420007F916F915F914F913F912F910F900FBEF0
:100430000F901F901895A2E0B0E0E0E2F2E03AC120
:10044000F89484B18E6084B98AB1886E8AB984B117
:100450008F7384B985B1806C85B954985C9A83EFA9
:1004600084BD11E015BD8093B0001093B10082EF00
:100470008093800089E18093810082ED90E09093E9
:10048000870080938600809186009091870020915C
:1004900086003091870036952795821B930B9093A9
:1004A0008900809388002FEF2093B300809186000D
:1004B0009091870090938B0080938A0028BD2093B1
:1004C000B40027BD86E023DF1093C50080EA809347
:1004D000C4008091C10088698093C10086E0809348
:1004E000C20078941EECEE24EA946AE2F62E0BE742
:1004F00067E083E290E02ADE819F802D1124825004
:100500008093B3002091860030918700809186000F
:1005100090918700A0E0B0E00196A11DB11D880F69
:10052000991FAA1FBB1F892F9A2FAB2FBB27A7FD8F
:10053000BA95281B390B30938B0020938A0066E014
:1005400083E290E003DE819F802D1124825088BDDC
:1005500064E089E290E0FADD819F802D11248250D1
:100560008093B40081E053DEE7BC2FEB89E396E093
:10057000215080409040E1F700C000002FEB89E35C
:1005800096E0215080409040E1F700C000002FEB42
:1005900089E396E0215080409040E1F700C00000E0
:1005A000E092B300809186009091870020918600B0
:1005B0003091870090938B0080938A00E8BCE09292
:1005C000B40080E024DE17BC2FEB89E396E02150D5
:1005D00080409040E1F700C000002FEB89E396E0F7
:1005E000215080409040E1F700C000002FEB89E3EC
:1005F00096E0215080409040E1F700C00000F0926A
:100600000E0100930F0181E080930D0180910E0196
:10061000898380910F018A8380910E01E7DD8091AB
:100620000F01E4DD62E070E0CE0101961FDDDEDD4A
:100630005FCFDB018F939F9327D0BF91AF91A29F94
:10064000800D911DA39F900DB29F900D11240895D0
:10065000052E97FB16F400940FD057FD05D03AD025
:1006600007FC02D046F408C050954095309521957E
:100670003F4F4F4F5F4F08959095809570956195CE
:100680007F4F8F4F9F4F089547D0A59F900DB49FE8
:10069000900DA49F800D911D112408952F923F92DB
:1006A0004F925F926F927F928F929F92AF92BF9282
:1006B000CF92DF92EF92FF920F931F93CF93DF932E
:1006C000CDB7DEB7CA1BDB0B0FB6F894DEBF0FBE8B
:1006D000CDBF0994A1E21A2EAA1BBB1BFD010DC0C0
:1006E000AA1FBB1FEE1FFF1FA217B307E407F507E2
:1006F00020F0A21BB30BE40BF50B661F771F881FBE
:10070000991F1A9469F760957095809590959B0153
:10071000AC01BD01CF010895A29FB001B39FC001FC
:10072000A39F01D0B29F700D811D1124911D0895CA
:04073000F894FFCF6B
:02073400FF00C4
:00000001FF
